{
  "contracts/CrowdFund.sol": {
    "CrowdFund": {
      "abi": [
        {
          "inputs": [],
          "stateMutability": "nonpayable",
          "type": "constructor"
        },
        {
          "inputs": [
            {
              "internalType": "address",
              "name": "owner",
              "type": "address"
            }
          ],
          "name": "OwnableInvalidOwner",
          "type": "error"
        },
        {
          "inputs": [
            {
              "internalType": "address",
              "name": "account",
              "type": "address"
            }
          ],
          "name": "OwnableUnauthorizedAccount",
          "type": "error"
        },
        {
          "inputs": [],
          "name": "ReentrancyGuardReentrantCall",
          "type": "error"
        },
        {
          "anonymous": false,
          "inputs": [
            {
              "indexed": true,
              "internalType": "uint256",
              "name": "campaignId",
              "type": "uint256"
            },
            {
              "indexed": true,
              "internalType": "string",
              "name": "title",
              "type": "string"
            },
            {
              "indexed": false,
              "internalType": "uint256",
              "name": "deadline",
              "type": "uint256"
            },
            {
              "indexed": false,
              "internalType": "address",
              "name": "creator",
              "type": "address"
            }
          ],
          "name": "CampaignCreated",
          "type": "event"
        },
        {
          "anonymous": false,
          "inputs": [
            {
              "indexed": true,
              "internalType": "uint256",
              "name": "timeEnded",
              "type": "uint256"
            },
            {
              "indexed": true,
              "internalType": "bool",
              "name": "goalReached",
              "type": "bool"
            },
            {
              "indexed": true,
              "internalType": "uint256",
              "name": "campaignId",
              "type": "uint256"
            }
          ],
          "name": "CampaignEnded",
          "type": "event"
        },
        {
          "anonymous": false,
          "inputs": [
            {
              "indexed": false,
              "internalType": "uint256",
              "name": "amount",
              "type": "uint256"
            },
            {
              "indexed": true,
              "internalType": "uint256",
              "name": "campaignId",
              "type": "uint256"
            },
            {
              "indexed": true,
              "internalType": "uint256",
              "name": "timeDonated",
              "type": "uint256"
            }
          ],
          "name": "DonationReceived",
          "type": "event"
        },
        {
          "anonymous": false,
          "inputs": [
            {
              "indexed": false,
              "internalType": "uint256",
              "name": "amount",
              "type": "uint256"
            },
            {
              "indexed": true,
              "internalType": "uint256",
              "name": "timeWithdrawn",
              "type": "uint256"
            }
          ],
          "name": "FundsWithdrawn",
          "type": "event"
        },
        {
          "anonymous": false,
          "inputs": [
            {
              "indexed": true,
              "internalType": "address",
              "name": "previousOwner",
              "type": "address"
            },
            {
              "indexed": true,
              "internalType": "address",
              "name": "newOwner",
              "type": "address"
            }
          ],
          "name": "OwnershipTransferred",
          "type": "event"
        },
        {
          "stateMutability": "payable",
          "type": "fallback"
        },
        {
          "inputs": [
            {
              "internalType": "uint256",
              "name": "",
              "type": "uint256"
            }
          ],
          "name": "campaigns",
          "outputs": [
            {
              "internalType": "string",
              "name": "title",
              "type": "string"
            },
            {
              "internalType": "string",
              "name": "description",
              "type": "string"
            },
            {
              "internalType": "address",
              "name": "benefactor",
              "type": "address"
            },
            {
              "internalType": "uint256",
              "name": "goal",
              "type": "uint256"
            },
            {
              "internalType": "uint256",
              "name": "deadline",
              "type": "uint256"
            },
            {
              "internalType": "uint256",
              "name": "amountRaised",
              "type": "uint256"
            }
          ],
          "stateMutability": "view",
          "type": "function"
        },
        {
          "inputs": [],
          "name": "checkCampaigns",
          "outputs": [],
          "stateMutability": "nonpayable",
          "type": "function"
        },
        {
          "inputs": [
            {
              "internalType": "string",
              "name": "_title",
              "type": "string"
            },
            {
              "internalType": "string",
              "name": "_description",
              "type": "string"
            },
            {
              "internalType": "address",
              "name": "_benefactor",
              "type": "address"
            },
            {
              "internalType": "uint256",
              "name": "_goal",
              "type": "uint256"
            },
            {
              "internalType": "uint256",
              "name": "_duration",
              "type": "uint256"
            }
          ],
          "name": "createCampaign",
          "outputs": [],
          "stateMutability": "nonpayable",
          "type": "function"
        },
        {
          "inputs": [
            {
              "internalType": "uint256",
              "name": "campaignId",
              "type": "uint256"
            }
          ],
          "name": "donateToCampaign",
          "outputs": [],
          "stateMutability": "payable",
          "type": "function"
        },
        {
          "inputs": [],
          "name": "numOfCampaigns",
          "outputs": [
            {
              "internalType": "uint256",
              "name": "",
              "type": "uint256"
            }
          ],
          "stateMutability": "view",
          "type": "function"
        },
        {
          "inputs": [],
          "name": "owner",
          "outputs": [
            {
              "internalType": "address",
              "name": "",
              "type": "address"
            }
          ],
          "stateMutability": "view",
          "type": "function"
        },
        {
          "inputs": [],
          "name": "renounceOwnership",
          "outputs": [],
          "stateMutability": "nonpayable",
          "type": "function"
        },
        {
          "inputs": [
            {
              "internalType": "address",
              "name": "newOwner",
              "type": "address"
            }
          ],
          "name": "transferOwnership",
          "outputs": [],
          "stateMutability": "nonpayable",
          "type": "function"
        },
        {
          "inputs": [],
          "name": "withdrawRefunds",
          "outputs": [],
          "stateMutability": "nonpayable",
          "type": "function"
        },
        {
          "stateMutability": "payable",
          "type": "receive"
        }
      ],
      "evm": {
        "bytecode": {
          "linkReferences": {},
          "object": "60806040523480156200001157600080fd5b5033600073ffffffffffffffffffffffffffffffffffffffff168173ffffffffffffffffffffffffffffffffffffffff1603620000885760006040517f1e4fbdf70000000000000000000000000000000000000000000000000000000081526004016200007f9190620001b0565b60405180910390fd5b6200009981620000a760201b60201c565b5060018081905550620001cd565b60008060009054906101000a900473ffffffffffffffffffffffffffffffffffffffff169050816000806101000a81548173ffffffffffffffffffffffffffffffffffffffff021916908373ffffffffffffffffffffffffffffffffffffffff1602179055508173ffffffffffffffffffffffffffffffffffffffff168173ffffffffffffffffffffffffffffffffffffffff167f8be0079c531659141344cd1fd0a4f28419497f9722a3daafe3b4186f6b6457e060405160405180910390a35050565b600073ffffffffffffffffffffffffffffffffffffffff82169050919050565b600062000198826200016b565b9050919050565b620001aa816200018b565b82525050565b6000602082019050620001c760008301846200019f565b92915050565b61169380620001dd6000396000f3fe60806040526004361061008a5760003560e01c8063715018a611610059578063715018a6146101335780638da5cb5b1461014a5780639304d1241461017557806395afc05c1461019e578063f2fde38b146101b557610091565b8063141961bc146100935780633a69e1fc146100d557806342a4fda8146101005780635111dd0a1461011c57610091565b3661009157005b005b34801561009f57600080fd5b506100ba60048036038101906100b59190610b54565b6101de565b6040516100cc96959493929190610c61565b60405180910390f35b3480156100e157600080fd5b506100ea61034a565b6040516100f79190610cd0565b60405180910390f35b61011a60048036038101906101159190610b54565b610350565b005b34801561012857600080fd5b50610131610415565b005b34801561013f57600080fd5b50610148610450565b005b34801561015657600080fd5b5061015f610464565b60405161016c9190610ceb565b60405180910390f35b34801561018157600080fd5b5061019c60048036038101906101979190610d97565b61048d565b005b3480156101aa57600080fd5b506101b3610604565b005b3480156101c157600080fd5b506101dc60048036038101906101d79190610e53565b61074c565b005b600260205280600052604060002060009150905080600001805461020190610eaf565b80601f016020809104026020016040519081016040528092919081815260200182805461022d90610eaf565b801561027a5780601f1061024f5761010080835404028352916020019161027a565b820191906000526020600020905b81548152906001019060200180831161025d57829003601f168201915b50505050509080600101805461028f90610eaf565b80601f01602080910402602001604051908101604052809291908181526020018280546102bb90610eaf565b80156103085780601f106102dd57610100808354040283529160200191610308565b820191906000526020600020905b8154815290600101906020018083116102eb57829003601f168201915b5050505050908060020160009054906101000a900473ffffffffffffffffffffffffffffffffffffffff16908060030154908060040154908060050154905086565b60035481565b6103586107d2565b6000600260008381526020019081526020016000209050806004015442106103b5576040517f08c379a00000000000000000000000000000000000000000000000000000000081526004016103ac90610f2c565b60405180910390fd5b348160050160008282546103c99190610f7b565b9250508190555042827f8a811f9b26fd857548fe3870975f8bebd10c2825d185d0e7e02154906a39c9c3346040516104019190610cd0565b60405180910390a350610412610818565b50565b61041d6107d2565b60005b60035481116104455761043281610821565b808061043d90610faf565b915050610420565b5061044e610818565b565b6104586109c1565b6104626000610a48565b565b60008060009054906101000a900473ffffffffffffffffffffffffffffffffffffffff16905090565b600082116104d0576040517f08c379a00000000000000000000000000000000000000000000000000000000081526004016104c790611069565b60405180910390fd5b60006002600060035481526020019081526020016000209050600082426104f79190610f7b565b9050888883600001918261050c92919061126f565b50868683600101918261052092919061126f565b50848260020160006101000a81548173ffffffffffffffffffffffffffffffffffffffff021916908373ffffffffffffffffffffffffffffffffffffffff1602179055508382600301819055508082600401819055506003600081548092919061058990610faf565b91905055506000600160035461059f919061133f565b9050826000016040516105b29190611401565b6040518091039020817f6fc7a1de3ccfc251acab8f2f41819123cd49f5da653ad8e7d5ca2f5e8ff765728560040154336040516105f0929190611418565b60405180910390a350505050505050505050565b61060c6109c1565b6106146107d2565b60004790506000811161065c576040517f08c379a00000000000000000000000000000000000000000000000000000000081526004016106539061148d565b60405180910390fd5b60003373ffffffffffffffffffffffffffffffffffffffff1682604051610682906114de565b60006040518083038185875af1925050503d80600081146106bf576040519150601f19603f3d011682016040523d82523d6000602084013e6106c4565b606091505b5050905080610708576040517f08c379a00000000000000000000000000000000000000000000000000000000081526004016106ff9061153f565b60405180910390fd5b427fd66662c0ded9e58fd31d5e44944bcfd07ffc15e6927ecc1382e7941cb7bd24c4836040516107389190610cd0565b60405180910390a2505061074a610818565b565b6107546109c1565b600073ffffffffffffffffffffffffffffffffffffffff168173ffffffffffffffffffffffffffffffffffffffff16036107c65760006040517f1e4fbdf70000000000000000000000000000000000000000000000000000000081526004016107bd9190610ceb565b60405180910390fd5b6107cf81610a48565b50565b60026001540361080e576040517f3ee5aeb500000000000000000000000000000000000000000000000000000000815260040160405180910390fd5b6002600181905550565b60018081905550565b6108296107d2565b60006002600083815260200190815260200160002090504281600401541015610887576040517f08c379a000000000000000000000000000000000000000000000000000000000815260040161087e906115ab565b60405180910390fd5b60008160050154905060008260020160009054906101000a900473ffffffffffffffffffffffffffffffffffffffff1690506000836003015483106108cf57600190506108d4565b600090505b60008273ffffffffffffffffffffffffffffffffffffffff16846040516108fa906114de565b60006040518083038185875af1925050503d8060008114610937576040519150601f19603f3d011682016040523d82523d6000602084013e61093c565b606091505b5050905080610980576040517f08c379a00000000000000000000000000000000000000000000000000000000081526004016109779061163d565b60405180910390fd5b85821515427fe949894bb911206f3ce6136a249059c027a51361602edf1ab420eec35240db5360405160405180910390a450505050506109be610818565b50565b6109c9610b0c565b73ffffffffffffffffffffffffffffffffffffffff166109e7610464565b73ffffffffffffffffffffffffffffffffffffffff1614610a4657610a0a610b0c565b6040517f118cdaa7000000000000000000000000000000000000000000000000000000008152600401610a3d9190610ceb565b60405180910390fd5b565b60008060009054906101000a900473ffffffffffffffffffffffffffffffffffffffff169050816000806101000a81548173ffffffffffffffffffffffffffffffffffffffff021916908373ffffffffffffffffffffffffffffffffffffffff1602179055508173ffffffffffffffffffffffffffffffffffffffff168173ffffffffffffffffffffffffffffffffffffffff167f8be0079c531659141344cd1fd0a4f28419497f9722a3daafe3b4186f6b6457e060405160405180910390a35050565b600033905090565b600080fd5b600080fd5b6000819050919050565b610b3181610b1e565b8114610b3c57600080fd5b50565b600081359050610b4e81610b28565b92915050565b600060208284031215610b6a57610b69610b14565b5b6000610b7884828501610b3f565b91505092915050565b600081519050919050565b600082825260208201905092915050565b60005b83811015610bbb578082015181840152602081019050610ba0565b60008484015250505050565b6000601f19601f8301169050919050565b6000610be382610b81565b610bed8185610b8c565b9350610bfd818560208601610b9d565b610c0681610bc7565b840191505092915050565b600073ffffffffffffffffffffffffffffffffffffffff82169050919050565b6000610c3c82610c11565b9050919050565b610c4c81610c31565b82525050565b610c5b81610b1e565b82525050565b600060c0820190508181036000830152610c7b8189610bd8565b90508181036020830152610c8f8188610bd8565b9050610c9e6040830187610c43565b610cab6060830186610c52565b610cb86080830185610c52565b610cc560a0830184610c52565b979650505050505050565b6000602082019050610ce56000830184610c52565b92915050565b6000602082019050610d006000830184610c43565b92915050565b600080fd5b600080fd5b600080fd5b60008083601f840112610d2b57610d2a610d06565b5b8235905067ffffffffffffffff811115610d4857610d47610d0b565b5b602083019150836001820283011115610d6457610d63610d10565b5b9250929050565b610d7481610c31565b8114610d7f57600080fd5b50565b600081359050610d9181610d6b565b92915050565b600080600080600080600060a0888a031215610db657610db5610b14565b5b600088013567ffffffffffffffff811115610dd457610dd3610b19565b5b610de08a828b01610d15565b9750975050602088013567ffffffffffffffff811115610e0357610e02610b19565b5b610e0f8a828b01610d15565b95509550506040610e228a828b01610d82565b9350506060610e338a828b01610b3f565b9250506080610e448a828b01610b3f565b91505092959891949750929550565b600060208284031215610e6957610e68610b14565b5b6000610e7784828501610d82565b91505092915050565b7f4e487b7100000000000000000000000000000000000000000000000000000000600052602260045260246000fd5b60006002820490506001821680610ec757607f821691505b602082108103610eda57610ed9610e80565b5b50919050565b7f546869732063616d706169676e2068617320636c6f7365642100000000000000600082015250565b6000610f16601983610b8c565b9150610f2182610ee0565b602082019050919050565b60006020820190508181036000830152610f4581610f09565b9050919050565b7f4e487b7100000000000000000000000000000000000000000000000000000000600052601160045260246000fd5b6000610f8682610b1e565b9150610f9183610b1e565b9250828201905080821115610fa957610fa8610f4c565b5b92915050565b6000610fba82610b1e565b91507fffffffffffffffffffffffffffffffffffffffffffffffffffffffffffffffff8203610fec57610feb610f4c565b5b600182019050919050565b7f416d6f756e7420746f207261697365206d75737420626520677265617465722060008201527f7468616e20302100000000000000000000000000000000000000000000000000602082015250565b6000611053602783610b8c565b915061105e82610ff7565b604082019050919050565b6000602082019050818103600083015261108281611046565b9050919050565b600082905092915050565b7f4e487b7100000000000000000000000000000000000000000000000000000000600052604160045260246000fd5b60008190508160005260206000209050919050565b60006020601f8301049050919050565b600082821b905092915050565b6000600883026111257fffffffffffffffffffffffffffffffffffffffffffffffffffffffffffffffff826110e8565b61112f86836110e8565b95508019841693508086168417925050509392505050565b6000819050919050565b600061116c61116761116284610b1e565b611147565b610b1e565b9050919050565b6000819050919050565b61118683611151565b61119a61119282611173565b8484546110f5565b825550505050565b600090565b6111af6111a2565b6111ba81848461117d565b505050565b5b818110156111de576111d36000826111a7565b6001810190506111c0565b5050565b601f821115611223576111f4816110c3565b6111fd846110d8565b8101602085101561120c578190505b611220611218856110d8565b8301826111bf565b50505b505050565b600082821c905092915050565b600061124660001984600802611228565b1980831691505092915050565b600061125f8383611235565b9150826002028217905092915050565b6112798383611089565b67ffffffffffffffff81111561129257611291611094565b5b61129c8254610eaf565b6112a78282856111e2565b6000601f8311600181146112d657600084156112c4578287013590505b6112ce8582611253565b865550611336565b601f1984166112e4866110c3565b60005b8281101561130c578489013582556001820191506020850194506020810190506112e7565b868310156113295784890135611325601f891682611235565b8355505b6001600288020188555050505b50505050505050565b600061134a82610b1e565b915061135583610b1e565b925082820390508181111561136d5761136c610f4c565b5b92915050565b600081905092915050565b6000815461138b81610eaf565b6113958186611373565b945060018216600081146113b057600181146113c5576113f8565b60ff19831686528115158202860193506113f8565b6113ce856110c3565b60005b838110156113f0578154818901526001820191506020810190506113d1565b838801955050505b50505092915050565b600061140d828461137e565b915081905092915050565b600060408201905061142d6000830185610c52565b61143a6020830184610c43565b9392505050565b7f4e6f2066756e647320746f207769746864726177000000000000000000000000600082015250565b6000611477601483610b8c565b915061148282611441565b602082019050919050565b600060208201905081810360008301526114a68161146a565b9050919050565b600081905092915050565b50565b60006114c86000836114ad565b91506114d3826114b8565b600082019050919050565b60006114e9826114bb565b9150819050919050565b7f4661696c656420746f2077697468647261772065746865722100000000000000600082015250565b6000611529601983610b8c565b9150611534826114f3565b602082019050919050565b600060208201905081810360008301526115588161151c565b9050919050565b7f546869732063616d706169676e2069732079657420746f20656e642100000000600082015250565b6000611595601c83610b8c565b91506115a08261155f565b602082019050919050565b600060208201905081810360008301526115c481611588565b9050919050565b7f4661696c656420746f2073656e6420657468657220746f2062656e656661637460008201527f6f72210000000000000000000000000000000000000000000000000000000000602082015250565b6000611627602383610b8c565b9150611632826115cb565b604082019050919050565b600060208201905081810360008301526116568161161a565b905091905056fea2646970667358221220c343902ed27e868f3fe04ccf39fec813feb3af9a9becee7433d10867ce2707d564736f6c63430008180033",
          "opcodes": "PUSH1 0x80 PUSH1 0x40 MSTORE CALLVALUE DUP1 ISZERO PUSH3 0x11 JUMPI PUSH1 0x0 DUP1 REVERT JUMPDEST POP CALLER PUSH1 0x0 PUSH20 0xFFFFFFFFFFFFFFFFFFFFFFFFFFFFFFFFFFFFFFFF AND DUP2 PUSH20 0xFFFFFFFFFFFFFFFFFFFFFFFFFFFFFFFFFFFFFFFF AND SUB PUSH3 0x88 JUMPI PUSH1 0x0 PUSH1 0x40 MLOAD PUSH32 0x1E4FBDF700000000000000000000000000000000000000000000000000000000 DUP2 MSTORE PUSH1 0x4 ADD PUSH3 0x7F SWAP2 SWAP1 PUSH3 0x1B0 JUMP JUMPDEST PUSH1 0x40 MLOAD DUP1 SWAP2 SUB SWAP1 REVERT JUMPDEST PUSH3 0x99 DUP2 PUSH3 0xA7 PUSH1 0x20 SHL PUSH1 0x20 SHR JUMP JUMPDEST POP PUSH1 0x1 DUP1 DUP2 SWAP1 SSTORE POP PUSH3 0x1CD JUMP JUMPDEST PUSH1 0x0 DUP1 PUSH1 0x0 SWAP1 SLOAD SWAP1 PUSH2 0x100 EXP SWAP1 DIV PUSH20 0xFFFFFFFFFFFFFFFFFFFFFFFFFFFFFFFFFFFFFFFF AND SWAP1 POP DUP2 PUSH1 0x0 DUP1 PUSH2 0x100 EXP DUP2 SLOAD DUP2 PUSH20 0xFFFFFFFFFFFFFFFFFFFFFFFFFFFFFFFFFFFFFFFF MUL NOT AND SWAP1 DUP4 PUSH20 0xFFFFFFFFFFFFFFFFFFFFFFFFFFFFFFFFFFFFFFFF AND MUL OR SWAP1 SSTORE POP DUP2 PUSH20 0xFFFFFFFFFFFFFFFFFFFFFFFFFFFFFFFFFFFFFFFF AND DUP2 PUSH20 0xFFFFFFFFFFFFFFFFFFFFFFFFFFFFFFFFFFFFFFFF AND PUSH32 0x8BE0079C531659141344CD1FD0A4F28419497F9722A3DAAFE3B4186F6B6457E0 PUSH1 0x40 MLOAD PUSH1 0x40 MLOAD DUP1 SWAP2 SUB SWAP1 LOG3 POP POP JUMP JUMPDEST PUSH1 0x0 PUSH20 0xFFFFFFFFFFFFFFFFFFFFFFFFFFFFFFFFFFFFFFFF DUP3 AND SWAP1 POP SWAP2 SWAP1 POP JUMP JUMPDEST PUSH1 0x0 PUSH3 0x198 DUP3 PUSH3 0x16B JUMP JUMPDEST SWAP1 POP SWAP2 SWAP1 POP JUMP JUMPDEST PUSH3 0x1AA DUP2 PUSH3 0x18B JUMP JUMPDEST DUP3 MSTORE POP POP JUMP JUMPDEST PUSH1 0x0 PUSH1 0x20 DUP3 ADD SWAP1 POP PUSH3 0x1C7 PUSH1 0x0 DUP4 ADD DUP5 PUSH3 0x19F JUMP JUMPDEST SWAP3 SWAP2 POP POP JUMP JUMPDEST PUSH2 0x1693 DUP1 PUSH3 0x1DD PUSH1 0x0 CODECOPY PUSH1 0x0 RETURN INVALID PUSH1 0x80 PUSH1 0x40 MSTORE PUSH1 0x4 CALLDATASIZE LT PUSH2 0x8A JUMPI PUSH1 0x0 CALLDATALOAD PUSH1 0xE0 SHR DUP1 PUSH4 0x715018A6 GT PUSH2 0x59 JUMPI DUP1 PUSH4 0x715018A6 EQ PUSH2 0x133 JUMPI DUP1 PUSH4 0x8DA5CB5B EQ PUSH2 0x14A JUMPI DUP1 PUSH4 0x9304D124 EQ PUSH2 0x175 JUMPI DUP1 PUSH4 0x95AFC05C EQ PUSH2 0x19E JUMPI DUP1 PUSH4 0xF2FDE38B EQ PUSH2 0x1B5 JUMPI PUSH2 0x91 JUMP JUMPDEST DUP1 PUSH4 0x141961BC EQ PUSH2 0x93 JUMPI DUP1 PUSH4 0x3A69E1FC EQ PUSH2 0xD5 JUMPI DUP1 PUSH4 0x42A4FDA8 EQ PUSH2 0x100 JUMPI DUP1 PUSH4 0x5111DD0A EQ PUSH2 0x11C JUMPI PUSH2 0x91 JUMP JUMPDEST CALLDATASIZE PUSH2 0x91 JUMPI STOP JUMPDEST STOP JUMPDEST CALLVALUE DUP1 ISZERO PUSH2 0x9F JUMPI PUSH1 0x0 DUP1 REVERT JUMPDEST POP PUSH2 0xBA PUSH1 0x4 DUP1 CALLDATASIZE SUB DUP2 ADD SWAP1 PUSH2 0xB5 SWAP2 SWAP1 PUSH2 0xB54 JUMP JUMPDEST PUSH2 0x1DE JUMP JUMPDEST PUSH1 0x40 MLOAD PUSH2 0xCC SWAP7 SWAP6 SWAP5 SWAP4 SWAP3 SWAP2 SWAP1 PUSH2 0xC61 JUMP JUMPDEST PUSH1 0x40 MLOAD DUP1 SWAP2 SUB SWAP1 RETURN JUMPDEST CALLVALUE DUP1 ISZERO PUSH2 0xE1 JUMPI PUSH1 0x0 DUP1 REVERT JUMPDEST POP PUSH2 0xEA PUSH2 0x34A JUMP JUMPDEST PUSH1 0x40 MLOAD PUSH2 0xF7 SWAP2 SWAP1 PUSH2 0xCD0 JUMP JUMPDEST PUSH1 0x40 MLOAD DUP1 SWAP2 SUB SWAP1 RETURN JUMPDEST PUSH2 0x11A PUSH1 0x4 DUP1 CALLDATASIZE SUB DUP2 ADD SWAP1 PUSH2 0x115 SWAP2 SWAP1 PUSH2 0xB54 JUMP JUMPDEST PUSH2 0x350 JUMP JUMPDEST STOP JUMPDEST CALLVALUE DUP1 ISZERO PUSH2 0x128 JUMPI PUSH1 0x0 DUP1 REVERT JUMPDEST POP PUSH2 0x131 PUSH2 0x415 JUMP JUMPDEST STOP JUMPDEST CALLVALUE DUP1 ISZERO PUSH2 0x13F JUMPI PUSH1 0x0 DUP1 REVERT JUMPDEST POP PUSH2 0x148 PUSH2 0x450 JUMP JUMPDEST STOP JUMPDEST CALLVALUE DUP1 ISZERO PUSH2 0x156 JUMPI PUSH1 0x0 DUP1 REVERT JUMPDEST POP PUSH2 0x15F PUSH2 0x464 JUMP JUMPDEST PUSH1 0x40 MLOAD PUSH2 0x16C SWAP2 SWAP1 PUSH2 0xCEB JUMP JUMPDEST PUSH1 0x40 MLOAD DUP1 SWAP2 SUB SWAP1 RETURN JUMPDEST CALLVALUE DUP1 ISZERO PUSH2 0x181 JUMPI PUSH1 0x0 DUP1 REVERT JUMPDEST POP PUSH2 0x19C PUSH1 0x4 DUP1 CALLDATASIZE SUB DUP2 ADD SWAP1 PUSH2 0x197 SWAP2 SWAP1 PUSH2 0xD97 JUMP JUMPDEST PUSH2 0x48D JUMP JUMPDEST STOP JUMPDEST CALLVALUE DUP1 ISZERO PUSH2 0x1AA JUMPI PUSH1 0x0 DUP1 REVERT JUMPDEST POP PUSH2 0x1B3 PUSH2 0x604 JUMP JUMPDEST STOP JUMPDEST CALLVALUE DUP1 ISZERO PUSH2 0x1C1 JUMPI PUSH1 0x0 DUP1 REVERT JUMPDEST POP PUSH2 0x1DC PUSH1 0x4 DUP1 CALLDATASIZE SUB DUP2 ADD SWAP1 PUSH2 0x1D7 SWAP2 SWAP1 PUSH2 0xE53 JUMP JUMPDEST PUSH2 0x74C JUMP JUMPDEST STOP JUMPDEST PUSH1 0x2 PUSH1 0x20 MSTORE DUP1 PUSH1 0x0 MSTORE PUSH1 0x40 PUSH1 0x0 KECCAK256 PUSH1 0x0 SWAP2 POP SWAP1 POP DUP1 PUSH1 0x0 ADD DUP1 SLOAD PUSH2 0x201 SWAP1 PUSH2 0xEAF JUMP JUMPDEST DUP1 PUSH1 0x1F ADD PUSH1 0x20 DUP1 SWAP2 DIV MUL PUSH1 0x20 ADD PUSH1 0x40 MLOAD SWAP1 DUP2 ADD PUSH1 0x40 MSTORE DUP1 SWAP3 SWAP2 SWAP1 DUP2 DUP2 MSTORE PUSH1 0x20 ADD DUP3 DUP1 SLOAD PUSH2 0x22D SWAP1 PUSH2 0xEAF JUMP JUMPDEST DUP1 ISZERO PUSH2 0x27A JUMPI DUP1 PUSH1 0x1F LT PUSH2 0x24F JUMPI PUSH2 0x100 DUP1 DUP4 SLOAD DIV MUL DUP4 MSTORE SWAP2 PUSH1 0x20 ADD SWAP2 PUSH2 0x27A JUMP JUMPDEST DUP3 ADD SWAP2 SWAP1 PUSH1 0x0 MSTORE PUSH1 0x20 PUSH1 0x0 KECCAK256 SWAP1 JUMPDEST DUP2 SLOAD DUP2 MSTORE SWAP1 PUSH1 0x1 ADD SWAP1 PUSH1 0x20 ADD DUP1 DUP4 GT PUSH2 0x25D JUMPI DUP3 SWAP1 SUB PUSH1 0x1F AND DUP3 ADD SWAP2 JUMPDEST POP POP POP POP POP SWAP1 DUP1 PUSH1 0x1 ADD DUP1 SLOAD PUSH2 0x28F SWAP1 PUSH2 0xEAF JUMP JUMPDEST DUP1 PUSH1 0x1F ADD PUSH1 0x20 DUP1 SWAP2 DIV MUL PUSH1 0x20 ADD PUSH1 0x40 MLOAD SWAP1 DUP2 ADD PUSH1 0x40 MSTORE DUP1 SWAP3 SWAP2 SWAP1 DUP2 DUP2 MSTORE PUSH1 0x20 ADD DUP3 DUP1 SLOAD PUSH2 0x2BB SWAP1 PUSH2 0xEAF JUMP JUMPDEST DUP1 ISZERO PUSH2 0x308 JUMPI DUP1 PUSH1 0x1F LT PUSH2 0x2DD JUMPI PUSH2 0x100 DUP1 DUP4 SLOAD DIV MUL DUP4 MSTORE SWAP2 PUSH1 0x20 ADD SWAP2 PUSH2 0x308 JUMP JUMPDEST DUP3 ADD SWAP2 SWAP1 PUSH1 0x0 MSTORE PUSH1 0x20 PUSH1 0x0 KECCAK256 SWAP1 JUMPDEST DUP2 SLOAD DUP2 MSTORE SWAP1 PUSH1 0x1 ADD SWAP1 PUSH1 0x20 ADD DUP1 DUP4 GT PUSH2 0x2EB JUMPI DUP3 SWAP1 SUB PUSH1 0x1F AND DUP3 ADD SWAP2 JUMPDEST POP POP POP POP POP SWAP1 DUP1 PUSH1 0x2 ADD PUSH1 0x0 SWAP1 SLOAD SWAP1 PUSH2 0x100 EXP SWAP1 DIV PUSH20 0xFFFFFFFFFFFFFFFFFFFFFFFFFFFFFFFFFFFFFFFF AND SWAP1 DUP1 PUSH1 0x3 ADD SLOAD SWAP1 DUP1 PUSH1 0x4 ADD SLOAD SWAP1 DUP1 PUSH1 0x5 ADD SLOAD SWAP1 POP DUP7 JUMP JUMPDEST PUSH1 0x3 SLOAD DUP2 JUMP JUMPDEST PUSH2 0x358 PUSH2 0x7D2 JUMP JUMPDEST PUSH1 0x0 PUSH1 0x2 PUSH1 0x0 DUP4 DUP2 MSTORE PUSH1 0x20 ADD SWAP1 DUP2 MSTORE PUSH1 0x20 ADD PUSH1 0x0 KECCAK256 SWAP1 POP DUP1 PUSH1 0x4 ADD SLOAD TIMESTAMP LT PUSH2 0x3B5 JUMPI PUSH1 0x40 MLOAD PUSH32 0x8C379A000000000000000000000000000000000000000000000000000000000 DUP2 MSTORE PUSH1 0x4 ADD PUSH2 0x3AC SWAP1 PUSH2 0xF2C JUMP JUMPDEST PUSH1 0x40 MLOAD DUP1 SWAP2 SUB SWAP1 REVERT JUMPDEST CALLVALUE DUP2 PUSH1 0x5 ADD PUSH1 0x0 DUP3 DUP3 SLOAD PUSH2 0x3C9 SWAP2 SWAP1 PUSH2 0xF7B JUMP JUMPDEST SWAP3 POP POP DUP2 SWAP1 SSTORE POP TIMESTAMP DUP3 PUSH32 0x8A811F9B26FD857548FE3870975F8BEBD10C2825D185D0E7E02154906A39C9C3 CALLVALUE PUSH1 0x40 MLOAD PUSH2 0x401 SWAP2 SWAP1 PUSH2 0xCD0 JUMP JUMPDEST PUSH1 0x40 MLOAD DUP1 SWAP2 SUB SWAP1 LOG3 POP PUSH2 0x412 PUSH2 0x818 JUMP JUMPDEST POP JUMP JUMPDEST PUSH2 0x41D PUSH2 0x7D2 JUMP JUMPDEST PUSH1 0x0 JUMPDEST PUSH1 0x3 SLOAD DUP2 GT PUSH2 0x445 JUMPI PUSH2 0x432 DUP2 PUSH2 0x821 JUMP JUMPDEST DUP1 DUP1 PUSH2 0x43D SWAP1 PUSH2 0xFAF JUMP JUMPDEST SWAP2 POP POP PUSH2 0x420 JUMP JUMPDEST POP PUSH2 0x44E PUSH2 0x818 JUMP JUMPDEST JUMP JUMPDEST PUSH2 0x458 PUSH2 0x9C1 JUMP JUMPDEST PUSH2 0x462 PUSH1 0x0 PUSH2 0xA48 JUMP JUMPDEST JUMP JUMPDEST PUSH1 0x0 DUP1 PUSH1 0x0 SWAP1 SLOAD SWAP1 PUSH2 0x100 EXP SWAP1 DIV PUSH20 0xFFFFFFFFFFFFFFFFFFFFFFFFFFFFFFFFFFFFFFFF AND SWAP1 POP SWAP1 JUMP JUMPDEST PUSH1 0x0 DUP3 GT PUSH2 0x4D0 JUMPI PUSH1 0x40 MLOAD PUSH32 0x8C379A000000000000000000000000000000000000000000000000000000000 DUP2 MSTORE PUSH1 0x4 ADD PUSH2 0x4C7 SWAP1 PUSH2 0x1069 JUMP JUMPDEST PUSH1 0x40 MLOAD DUP1 SWAP2 SUB SWAP1 REVERT JUMPDEST PUSH1 0x0 PUSH1 0x2 PUSH1 0x0 PUSH1 0x3 SLOAD DUP2 MSTORE PUSH1 0x20 ADD SWAP1 DUP2 MSTORE PUSH1 0x20 ADD PUSH1 0x0 KECCAK256 SWAP1 POP PUSH1 0x0 DUP3 TIMESTAMP PUSH2 0x4F7 SWAP2 SWAP1 PUSH2 0xF7B JUMP JUMPDEST SWAP1 POP DUP9 DUP9 DUP4 PUSH1 0x0 ADD SWAP2 DUP3 PUSH2 0x50C SWAP3 SWAP2 SWAP1 PUSH2 0x126F JUMP JUMPDEST POP DUP7 DUP7 DUP4 PUSH1 0x1 ADD SWAP2 DUP3 PUSH2 0x520 SWAP3 SWAP2 SWAP1 PUSH2 0x126F JUMP JUMPDEST POP DUP5 DUP3 PUSH1 0x2 ADD PUSH1 0x0 PUSH2 0x100 EXP DUP2 SLOAD DUP2 PUSH20 0xFFFFFFFFFFFFFFFFFFFFFFFFFFFFFFFFFFFFFFFF MUL NOT AND SWAP1 DUP4 PUSH20 0xFFFFFFFFFFFFFFFFFFFFFFFFFFFFFFFFFFFFFFFF AND MUL OR SWAP1 SSTORE POP DUP4 DUP3 PUSH1 0x3 ADD DUP2 SWAP1 SSTORE POP DUP1 DUP3 PUSH1 0x4 ADD DUP2 SWAP1 SSTORE POP PUSH1 0x3 PUSH1 0x0 DUP2 SLOAD DUP1 SWAP3 SWAP2 SWAP1 PUSH2 0x589 SWAP1 PUSH2 0xFAF JUMP JUMPDEST SWAP2 SWAP1 POP SSTORE POP PUSH1 0x0 PUSH1 0x1 PUSH1 0x3 SLOAD PUSH2 0x59F SWAP2 SWAP1 PUSH2 0x133F JUMP JUMPDEST SWAP1 POP DUP3 PUSH1 0x0 ADD PUSH1 0x40 MLOAD PUSH2 0x5B2 SWAP2 SWAP1 PUSH2 0x1401 JUMP JUMPDEST PUSH1 0x40 MLOAD DUP1 SWAP2 SUB SWAP1 KECCAK256 DUP2 PUSH32 0x6FC7A1DE3CCFC251ACAB8F2F41819123CD49F5DA653AD8E7D5CA2F5E8FF76572 DUP6 PUSH1 0x4 ADD SLOAD CALLER PUSH1 0x40 MLOAD PUSH2 0x5F0 SWAP3 SWAP2 SWAP1 PUSH2 0x1418 JUMP JUMPDEST PUSH1 0x40 MLOAD DUP1 SWAP2 SUB SWAP1 LOG3 POP POP POP POP POP POP POP POP POP POP JUMP JUMPDEST PUSH2 0x60C PUSH2 0x9C1 JUMP JUMPDEST PUSH2 0x614 PUSH2 0x7D2 JUMP JUMPDEST PUSH1 0x0 SELFBALANCE SWAP1 POP PUSH1 0x0 DUP2 GT PUSH2 0x65C JUMPI PUSH1 0x40 MLOAD PUSH32 0x8C379A000000000000000000000000000000000000000000000000000000000 DUP2 MSTORE PUSH1 0x4 ADD PUSH2 0x653 SWAP1 PUSH2 0x148D JUMP JUMPDEST PUSH1 0x40 MLOAD DUP1 SWAP2 SUB SWAP1 REVERT JUMPDEST PUSH1 0x0 CALLER PUSH20 0xFFFFFFFFFFFFFFFFFFFFFFFFFFFFFFFFFFFFFFFF AND DUP3 PUSH1 0x40 MLOAD PUSH2 0x682 SWAP1 PUSH2 0x14DE JUMP JUMPDEST PUSH1 0x0 PUSH1 0x40 MLOAD DUP1 DUP4 SUB DUP2 DUP6 DUP8 GAS CALL SWAP3 POP POP POP RETURNDATASIZE DUP1 PUSH1 0x0 DUP2 EQ PUSH2 0x6BF JUMPI PUSH1 0x40 MLOAD SWAP2 POP PUSH1 0x1F NOT PUSH1 0x3F RETURNDATASIZE ADD AND DUP3 ADD PUSH1 0x40 MSTORE RETURNDATASIZE DUP3 MSTORE RETURNDATASIZE PUSH1 0x0 PUSH1 0x20 DUP5 ADD RETURNDATACOPY PUSH2 0x6C4 JUMP JUMPDEST PUSH1 0x60 SWAP2 POP JUMPDEST POP POP SWAP1 POP DUP1 PUSH2 0x708 JUMPI PUSH1 0x40 MLOAD PUSH32 0x8C379A000000000000000000000000000000000000000000000000000000000 DUP2 MSTORE PUSH1 0x4 ADD PUSH2 0x6FF SWAP1 PUSH2 0x153F JUMP JUMPDEST PUSH1 0x40 MLOAD DUP1 SWAP2 SUB SWAP1 REVERT JUMPDEST TIMESTAMP PUSH32 0xD66662C0DED9E58FD31D5E44944BCFD07FFC15E6927ECC1382E7941CB7BD24C4 DUP4 PUSH1 0x40 MLOAD PUSH2 0x738 SWAP2 SWAP1 PUSH2 0xCD0 JUMP JUMPDEST PUSH1 0x40 MLOAD DUP1 SWAP2 SUB SWAP1 LOG2 POP POP PUSH2 0x74A PUSH2 0x818 JUMP JUMPDEST JUMP JUMPDEST PUSH2 0x754 PUSH2 0x9C1 JUMP JUMPDEST PUSH1 0x0 PUSH20 0xFFFFFFFFFFFFFFFFFFFFFFFFFFFFFFFFFFFFFFFF AND DUP2 PUSH20 0xFFFFFFFFFFFFFFFFFFFFFFFFFFFFFFFFFFFFFFFF AND SUB PUSH2 0x7C6 JUMPI PUSH1 0x0 PUSH1 0x40 MLOAD PUSH32 0x1E4FBDF700000000000000000000000000000000000000000000000000000000 DUP2 MSTORE PUSH1 0x4 ADD PUSH2 0x7BD SWAP2 SWAP1 PUSH2 0xCEB JUMP JUMPDEST PUSH1 0x40 MLOAD DUP1 SWAP2 SUB SWAP1 REVERT JUMPDEST PUSH2 0x7CF DUP2 PUSH2 0xA48 JUMP JUMPDEST POP JUMP JUMPDEST PUSH1 0x2 PUSH1 0x1 SLOAD SUB PUSH2 0x80E JUMPI PUSH1 0x40 MLOAD PUSH32 0x3EE5AEB500000000000000000000000000000000000000000000000000000000 DUP2 MSTORE PUSH1 0x4 ADD PUSH1 0x40 MLOAD DUP1 SWAP2 SUB SWAP1 REVERT JUMPDEST PUSH1 0x2 PUSH1 0x1 DUP2 SWAP1 SSTORE POP JUMP JUMPDEST PUSH1 0x1 DUP1 DUP2 SWAP1 SSTORE POP JUMP JUMPDEST PUSH2 0x829 PUSH2 0x7D2 JUMP JUMPDEST PUSH1 0x0 PUSH1 0x2 PUSH1 0x0 DUP4 DUP2 MSTORE PUSH1 0x20 ADD SWAP1 DUP2 MSTORE PUSH1 0x20 ADD PUSH1 0x0 KECCAK256 SWAP1 POP TIMESTAMP DUP2 PUSH1 0x4 ADD SLOAD LT ISZERO PUSH2 0x887 JUMPI PUSH1 0x40 MLOAD PUSH32 0x8C379A000000000000000000000000000000000000000000000000000000000 DUP2 MSTORE PUSH1 0x4 ADD PUSH2 0x87E SWAP1 PUSH2 0x15AB JUMP JUMPDEST PUSH1 0x40 MLOAD DUP1 SWAP2 SUB SWAP1 REVERT JUMPDEST PUSH1 0x0 DUP2 PUSH1 0x5 ADD SLOAD SWAP1 POP PUSH1 0x0 DUP3 PUSH1 0x2 ADD PUSH1 0x0 SWAP1 SLOAD SWAP1 PUSH2 0x100 EXP SWAP1 DIV PUSH20 0xFFFFFFFFFFFFFFFFFFFFFFFFFFFFFFFFFFFFFFFF AND SWAP1 POP PUSH1 0x0 DUP4 PUSH1 0x3 ADD SLOAD DUP4 LT PUSH2 0x8CF JUMPI PUSH1 0x1 SWAP1 POP PUSH2 0x8D4 JUMP JUMPDEST PUSH1 0x0 SWAP1 POP JUMPDEST PUSH1 0x0 DUP3 PUSH20 0xFFFFFFFFFFFFFFFFFFFFFFFFFFFFFFFFFFFFFFFF AND DUP5 PUSH1 0x40 MLOAD PUSH2 0x8FA SWAP1 PUSH2 0x14DE JUMP JUMPDEST PUSH1 0x0 PUSH1 0x40 MLOAD DUP1 DUP4 SUB DUP2 DUP6 DUP8 GAS CALL SWAP3 POP POP POP RETURNDATASIZE DUP1 PUSH1 0x0 DUP2 EQ PUSH2 0x937 JUMPI PUSH1 0x40 MLOAD SWAP2 POP PUSH1 0x1F NOT PUSH1 0x3F RETURNDATASIZE ADD AND DUP3 ADD PUSH1 0x40 MSTORE RETURNDATASIZE DUP3 MSTORE RETURNDATASIZE PUSH1 0x0 PUSH1 0x20 DUP5 ADD RETURNDATACOPY PUSH2 0x93C JUMP JUMPDEST PUSH1 0x60 SWAP2 POP JUMPDEST POP POP SWAP1 POP DUP1 PUSH2 0x980 JUMPI PUSH1 0x40 MLOAD PUSH32 0x8C379A000000000000000000000000000000000000000000000000000000000 DUP2 MSTORE PUSH1 0x4 ADD PUSH2 0x977 SWAP1 PUSH2 0x163D JUMP JUMPDEST PUSH1 0x40 MLOAD DUP1 SWAP2 SUB SWAP1 REVERT JUMPDEST DUP6 DUP3 ISZERO ISZERO TIMESTAMP PUSH32 0xE949894BB911206F3CE6136A249059C027A51361602EDF1AB420EEC35240DB53 PUSH1 0x40 MLOAD PUSH1 0x40 MLOAD DUP1 SWAP2 SUB SWAP1 LOG4 POP POP POP POP POP PUSH2 0x9BE PUSH2 0x818 JUMP JUMPDEST POP JUMP JUMPDEST PUSH2 0x9C9 PUSH2 0xB0C JUMP JUMPDEST PUSH20 0xFFFFFFFFFFFFFFFFFFFFFFFFFFFFFFFFFFFFFFFF AND PUSH2 0x9E7 PUSH2 0x464 JUMP JUMPDEST PUSH20 0xFFFFFFFFFFFFFFFFFFFFFFFFFFFFFFFFFFFFFFFF AND EQ PUSH2 0xA46 JUMPI PUSH2 0xA0A PUSH2 0xB0C JUMP JUMPDEST PUSH1 0x40 MLOAD PUSH32 0x118CDAA700000000000000000000000000000000000000000000000000000000 DUP2 MSTORE PUSH1 0x4 ADD PUSH2 0xA3D SWAP2 SWAP1 PUSH2 0xCEB JUMP JUMPDEST PUSH1 0x40 MLOAD DUP1 SWAP2 SUB SWAP1 REVERT JUMPDEST JUMP JUMPDEST PUSH1 0x0 DUP1 PUSH1 0x0 SWAP1 SLOAD SWAP1 PUSH2 0x100 EXP SWAP1 DIV PUSH20 0xFFFFFFFFFFFFFFFFFFFFFFFFFFFFFFFFFFFFFFFF AND SWAP1 POP DUP2 PUSH1 0x0 DUP1 PUSH2 0x100 EXP DUP2 SLOAD DUP2 PUSH20 0xFFFFFFFFFFFFFFFFFFFFFFFFFFFFFFFFFFFFFFFF MUL NOT AND SWAP1 DUP4 PUSH20 0xFFFFFFFFFFFFFFFFFFFFFFFFFFFFFFFFFFFFFFFF AND MUL OR SWAP1 SSTORE POP DUP2 PUSH20 0xFFFFFFFFFFFFFFFFFFFFFFFFFFFFFFFFFFFFFFFF AND DUP2 PUSH20 0xFFFFFFFFFFFFFFFFFFFFFFFFFFFFFFFFFFFFFFFF AND PUSH32 0x8BE0079C531659141344CD1FD0A4F28419497F9722A3DAAFE3B4186F6B6457E0 PUSH1 0x40 MLOAD PUSH1 0x40 MLOAD DUP1 SWAP2 SUB SWAP1 LOG3 POP POP JUMP JUMPDEST PUSH1 0x0 CALLER SWAP1 POP SWAP1 JUMP JUMPDEST PUSH1 0x0 DUP1 REVERT JUMPDEST PUSH1 0x0 DUP1 REVERT JUMPDEST PUSH1 0x0 DUP2 SWAP1 POP SWAP2 SWAP1 POP JUMP JUMPDEST PUSH2 0xB31 DUP2 PUSH2 0xB1E JUMP JUMPDEST DUP2 EQ PUSH2 0xB3C JUMPI PUSH1 0x0 DUP1 REVERT JUMPDEST POP JUMP JUMPDEST PUSH1 0x0 DUP2 CALLDATALOAD SWAP1 POP PUSH2 0xB4E DUP2 PUSH2 0xB28 JUMP JUMPDEST SWAP3 SWAP2 POP POP JUMP JUMPDEST PUSH1 0x0 PUSH1 0x20 DUP3 DUP5 SUB SLT ISZERO PUSH2 0xB6A JUMPI PUSH2 0xB69 PUSH2 0xB14 JUMP JUMPDEST JUMPDEST PUSH1 0x0 PUSH2 0xB78 DUP5 DUP3 DUP6 ADD PUSH2 0xB3F JUMP JUMPDEST SWAP2 POP POP SWAP3 SWAP2 POP POP JUMP JUMPDEST PUSH1 0x0 DUP2 MLOAD SWAP1 POP SWAP2 SWAP1 POP JUMP JUMPDEST PUSH1 0x0 DUP3 DUP3 MSTORE PUSH1 0x20 DUP3 ADD SWAP1 POP SWAP3 SWAP2 POP POP JUMP JUMPDEST PUSH1 0x0 JUMPDEST DUP4 DUP2 LT ISZERO PUSH2 0xBBB JUMPI DUP1 DUP3 ADD MLOAD DUP2 DUP5 ADD MSTORE PUSH1 0x20 DUP2 ADD SWAP1 POP PUSH2 0xBA0 JUMP JUMPDEST PUSH1 0x0 DUP5 DUP5 ADD MSTORE POP POP POP POP JUMP JUMPDEST PUSH1 0x0 PUSH1 0x1F NOT PUSH1 0x1F DUP4 ADD AND SWAP1 POP SWAP2 SWAP1 POP JUMP JUMPDEST PUSH1 0x0 PUSH2 0xBE3 DUP3 PUSH2 0xB81 JUMP JUMPDEST PUSH2 0xBED DUP2 DUP6 PUSH2 0xB8C JUMP JUMPDEST SWAP4 POP PUSH2 0xBFD DUP2 DUP6 PUSH1 0x20 DUP7 ADD PUSH2 0xB9D JUMP JUMPDEST PUSH2 0xC06 DUP2 PUSH2 0xBC7 JUMP JUMPDEST DUP5 ADD SWAP2 POP POP SWAP3 SWAP2 POP POP JUMP JUMPDEST PUSH1 0x0 PUSH20 0xFFFFFFFFFFFFFFFFFFFFFFFFFFFFFFFFFFFFFFFF DUP3 AND SWAP1 POP SWAP2 SWAP1 POP JUMP JUMPDEST PUSH1 0x0 PUSH2 0xC3C DUP3 PUSH2 0xC11 JUMP JUMPDEST SWAP1 POP SWAP2 SWAP1 POP JUMP JUMPDEST PUSH2 0xC4C DUP2 PUSH2 0xC31 JUMP JUMPDEST DUP3 MSTORE POP POP JUMP JUMPDEST PUSH2 0xC5B DUP2 PUSH2 0xB1E JUMP JUMPDEST DUP3 MSTORE POP POP JUMP JUMPDEST PUSH1 0x0 PUSH1 0xC0 DUP3 ADD SWAP1 POP DUP2 DUP2 SUB PUSH1 0x0 DUP4 ADD MSTORE PUSH2 0xC7B DUP2 DUP10 PUSH2 0xBD8 JUMP JUMPDEST SWAP1 POP DUP2 DUP2 SUB PUSH1 0x20 DUP4 ADD MSTORE PUSH2 0xC8F DUP2 DUP9 PUSH2 0xBD8 JUMP JUMPDEST SWAP1 POP PUSH2 0xC9E PUSH1 0x40 DUP4 ADD DUP8 PUSH2 0xC43 JUMP JUMPDEST PUSH2 0xCAB PUSH1 0x60 DUP4 ADD DUP7 PUSH2 0xC52 JUMP JUMPDEST PUSH2 0xCB8 PUSH1 0x80 DUP4 ADD DUP6 PUSH2 0xC52 JUMP JUMPDEST PUSH2 0xCC5 PUSH1 0xA0 DUP4 ADD DUP5 PUSH2 0xC52 JUMP JUMPDEST SWAP8 SWAP7 POP POP POP POP POP POP POP JUMP JUMPDEST PUSH1 0x0 PUSH1 0x20 DUP3 ADD SWAP1 POP PUSH2 0xCE5 PUSH1 0x0 DUP4 ADD DUP5 PUSH2 0xC52 JUMP JUMPDEST SWAP3 SWAP2 POP POP JUMP JUMPDEST PUSH1 0x0 PUSH1 0x20 DUP3 ADD SWAP1 POP PUSH2 0xD00 PUSH1 0x0 DUP4 ADD DUP5 PUSH2 0xC43 JUMP JUMPDEST SWAP3 SWAP2 POP POP JUMP JUMPDEST PUSH1 0x0 DUP1 REVERT JUMPDEST PUSH1 0x0 DUP1 REVERT JUMPDEST PUSH1 0x0 DUP1 REVERT JUMPDEST PUSH1 0x0 DUP1 DUP4 PUSH1 0x1F DUP5 ADD SLT PUSH2 0xD2B JUMPI PUSH2 0xD2A PUSH2 0xD06 JUMP JUMPDEST JUMPDEST DUP3 CALLDATALOAD SWAP1 POP PUSH8 0xFFFFFFFFFFFFFFFF DUP2 GT ISZERO PUSH2 0xD48 JUMPI PUSH2 0xD47 PUSH2 0xD0B JUMP JUMPDEST JUMPDEST PUSH1 0x20 DUP4 ADD SWAP2 POP DUP4 PUSH1 0x1 DUP3 MUL DUP4 ADD GT ISZERO PUSH2 0xD64 JUMPI PUSH2 0xD63 PUSH2 0xD10 JUMP JUMPDEST JUMPDEST SWAP3 POP SWAP3 SWAP1 POP JUMP JUMPDEST PUSH2 0xD74 DUP2 PUSH2 0xC31 JUMP JUMPDEST DUP2 EQ PUSH2 0xD7F JUMPI PUSH1 0x0 DUP1 REVERT JUMPDEST POP JUMP JUMPDEST PUSH1 0x0 DUP2 CALLDATALOAD SWAP1 POP PUSH2 0xD91 DUP2 PUSH2 0xD6B JUMP JUMPDEST SWAP3 SWAP2 POP POP JUMP JUMPDEST PUSH1 0x0 DUP1 PUSH1 0x0 DUP1 PUSH1 0x0 DUP1 PUSH1 0x0 PUSH1 0xA0 DUP9 DUP11 SUB SLT ISZERO PUSH2 0xDB6 JUMPI PUSH2 0xDB5 PUSH2 0xB14 JUMP JUMPDEST JUMPDEST PUSH1 0x0 DUP9 ADD CALLDATALOAD PUSH8 0xFFFFFFFFFFFFFFFF DUP2 GT ISZERO PUSH2 0xDD4 JUMPI PUSH2 0xDD3 PUSH2 0xB19 JUMP JUMPDEST JUMPDEST PUSH2 0xDE0 DUP11 DUP3 DUP12 ADD PUSH2 0xD15 JUMP JUMPDEST SWAP8 POP SWAP8 POP POP PUSH1 0x20 DUP9 ADD CALLDATALOAD PUSH8 0xFFFFFFFFFFFFFFFF DUP2 GT ISZERO PUSH2 0xE03 JUMPI PUSH2 0xE02 PUSH2 0xB19 JUMP JUMPDEST JUMPDEST PUSH2 0xE0F DUP11 DUP3 DUP12 ADD PUSH2 0xD15 JUMP JUMPDEST SWAP6 POP SWAP6 POP POP PUSH1 0x40 PUSH2 0xE22 DUP11 DUP3 DUP12 ADD PUSH2 0xD82 JUMP JUMPDEST SWAP4 POP POP PUSH1 0x60 PUSH2 0xE33 DUP11 DUP3 DUP12 ADD PUSH2 0xB3F JUMP JUMPDEST SWAP3 POP POP PUSH1 0x80 PUSH2 0xE44 DUP11 DUP3 DUP12 ADD PUSH2 0xB3F JUMP JUMPDEST SWAP2 POP POP SWAP3 SWAP6 SWAP9 SWAP2 SWAP5 SWAP8 POP SWAP3 SWAP6 POP JUMP JUMPDEST PUSH1 0x0 PUSH1 0x20 DUP3 DUP5 SUB SLT ISZERO PUSH2 0xE69 JUMPI PUSH2 0xE68 PUSH2 0xB14 JUMP JUMPDEST JUMPDEST PUSH1 0x0 PUSH2 0xE77 DUP5 DUP3 DUP6 ADD PUSH2 0xD82 JUMP JUMPDEST SWAP2 POP POP SWAP3 SWAP2 POP POP JUMP JUMPDEST PUSH32 0x4E487B7100000000000000000000000000000000000000000000000000000000 PUSH1 0x0 MSTORE PUSH1 0x22 PUSH1 0x4 MSTORE PUSH1 0x24 PUSH1 0x0 REVERT JUMPDEST PUSH1 0x0 PUSH1 0x2 DUP3 DIV SWAP1 POP PUSH1 0x1 DUP3 AND DUP1 PUSH2 0xEC7 JUMPI PUSH1 0x7F DUP3 AND SWAP2 POP JUMPDEST PUSH1 0x20 DUP3 LT DUP2 SUB PUSH2 0xEDA JUMPI PUSH2 0xED9 PUSH2 0xE80 JUMP JUMPDEST JUMPDEST POP SWAP2 SWAP1 POP JUMP JUMPDEST PUSH32 0x546869732063616D706169676E2068617320636C6F7365642100000000000000 PUSH1 0x0 DUP3 ADD MSTORE POP JUMP JUMPDEST PUSH1 0x0 PUSH2 0xF16 PUSH1 0x19 DUP4 PUSH2 0xB8C JUMP JUMPDEST SWAP2 POP PUSH2 0xF21 DUP3 PUSH2 0xEE0 JUMP JUMPDEST PUSH1 0x20 DUP3 ADD SWAP1 POP SWAP2 SWAP1 POP JUMP JUMPDEST PUSH1 0x0 PUSH1 0x20 DUP3 ADD SWAP1 POP DUP2 DUP2 SUB PUSH1 0x0 DUP4 ADD MSTORE PUSH2 0xF45 DUP2 PUSH2 0xF09 JUMP JUMPDEST SWAP1 POP SWAP2 SWAP1 POP JUMP JUMPDEST PUSH32 0x4E487B7100000000000000000000000000000000000000000000000000000000 PUSH1 0x0 MSTORE PUSH1 0x11 PUSH1 0x4 MSTORE PUSH1 0x24 PUSH1 0x0 REVERT JUMPDEST PUSH1 0x0 PUSH2 0xF86 DUP3 PUSH2 0xB1E JUMP JUMPDEST SWAP2 POP PUSH2 0xF91 DUP4 PUSH2 0xB1E JUMP JUMPDEST SWAP3 POP DUP3 DUP3 ADD SWAP1 POP DUP1 DUP3 GT ISZERO PUSH2 0xFA9 JUMPI PUSH2 0xFA8 PUSH2 0xF4C JUMP JUMPDEST JUMPDEST SWAP3 SWAP2 POP POP JUMP JUMPDEST PUSH1 0x0 PUSH2 0xFBA DUP3 PUSH2 0xB1E JUMP JUMPDEST SWAP2 POP PUSH32 0xFFFFFFFFFFFFFFFFFFFFFFFFFFFFFFFFFFFFFFFFFFFFFFFFFFFFFFFFFFFFFFFF DUP3 SUB PUSH2 0xFEC JUMPI PUSH2 0xFEB PUSH2 0xF4C JUMP JUMPDEST JUMPDEST PUSH1 0x1 DUP3 ADD SWAP1 POP SWAP2 SWAP1 POP JUMP JUMPDEST PUSH32 0x416D6F756E7420746F207261697365206D757374206265206772656174657220 PUSH1 0x0 DUP3 ADD MSTORE PUSH32 0x7468616E20302100000000000000000000000000000000000000000000000000 PUSH1 0x20 DUP3 ADD MSTORE POP JUMP JUMPDEST PUSH1 0x0 PUSH2 0x1053 PUSH1 0x27 DUP4 PUSH2 0xB8C JUMP JUMPDEST SWAP2 POP PUSH2 0x105E DUP3 PUSH2 0xFF7 JUMP JUMPDEST PUSH1 0x40 DUP3 ADD SWAP1 POP SWAP2 SWAP1 POP JUMP JUMPDEST PUSH1 0x0 PUSH1 0x20 DUP3 ADD SWAP1 POP DUP2 DUP2 SUB PUSH1 0x0 DUP4 ADD MSTORE PUSH2 0x1082 DUP2 PUSH2 0x1046 JUMP JUMPDEST SWAP1 POP SWAP2 SWAP1 POP JUMP JUMPDEST PUSH1 0x0 DUP3 SWAP1 POP SWAP3 SWAP2 POP POP JUMP JUMPDEST PUSH32 0x4E487B7100000000000000000000000000000000000000000000000000000000 PUSH1 0x0 MSTORE PUSH1 0x41 PUSH1 0x4 MSTORE PUSH1 0x24 PUSH1 0x0 REVERT JUMPDEST PUSH1 0x0 DUP2 SWAP1 POP DUP2 PUSH1 0x0 MSTORE PUSH1 0x20 PUSH1 0x0 KECCAK256 SWAP1 POP SWAP2 SWAP1 POP JUMP JUMPDEST PUSH1 0x0 PUSH1 0x20 PUSH1 0x1F DUP4 ADD DIV SWAP1 POP SWAP2 SWAP1 POP JUMP JUMPDEST PUSH1 0x0 DUP3 DUP3 SHL SWAP1 POP SWAP3 SWAP2 POP POP JUMP JUMPDEST PUSH1 0x0 PUSH1 0x8 DUP4 MUL PUSH2 0x1125 PUSH32 0xFFFFFFFFFFFFFFFFFFFFFFFFFFFFFFFFFFFFFFFFFFFFFFFFFFFFFFFFFFFFFFFF DUP3 PUSH2 0x10E8 JUMP JUMPDEST PUSH2 0x112F DUP7 DUP4 PUSH2 0x10E8 JUMP JUMPDEST SWAP6 POP DUP1 NOT DUP5 AND SWAP4 POP DUP1 DUP7 AND DUP5 OR SWAP3 POP POP POP SWAP4 SWAP3 POP POP POP JUMP JUMPDEST PUSH1 0x0 DUP2 SWAP1 POP SWAP2 SWAP1 POP JUMP JUMPDEST PUSH1 0x0 PUSH2 0x116C PUSH2 0x1167 PUSH2 0x1162 DUP5 PUSH2 0xB1E JUMP JUMPDEST PUSH2 0x1147 JUMP JUMPDEST PUSH2 0xB1E JUMP JUMPDEST SWAP1 POP SWAP2 SWAP1 POP JUMP JUMPDEST PUSH1 0x0 DUP2 SWAP1 POP SWAP2 SWAP1 POP JUMP JUMPDEST PUSH2 0x1186 DUP4 PUSH2 0x1151 JUMP JUMPDEST PUSH2 0x119A PUSH2 0x1192 DUP3 PUSH2 0x1173 JUMP JUMPDEST DUP5 DUP5 SLOAD PUSH2 0x10F5 JUMP JUMPDEST DUP3 SSTORE POP POP POP POP JUMP JUMPDEST PUSH1 0x0 SWAP1 JUMP JUMPDEST PUSH2 0x11AF PUSH2 0x11A2 JUMP JUMPDEST PUSH2 0x11BA DUP2 DUP5 DUP5 PUSH2 0x117D JUMP JUMPDEST POP POP POP JUMP JUMPDEST JUMPDEST DUP2 DUP2 LT ISZERO PUSH2 0x11DE JUMPI PUSH2 0x11D3 PUSH1 0x0 DUP3 PUSH2 0x11A7 JUMP JUMPDEST PUSH1 0x1 DUP2 ADD SWAP1 POP PUSH2 0x11C0 JUMP JUMPDEST POP POP JUMP JUMPDEST PUSH1 0x1F DUP3 GT ISZERO PUSH2 0x1223 JUMPI PUSH2 0x11F4 DUP2 PUSH2 0x10C3 JUMP JUMPDEST PUSH2 0x11FD DUP5 PUSH2 0x10D8 JUMP JUMPDEST DUP2 ADD PUSH1 0x20 DUP6 LT ISZERO PUSH2 0x120C JUMPI DUP2 SWAP1 POP JUMPDEST PUSH2 0x1220 PUSH2 0x1218 DUP6 PUSH2 0x10D8 JUMP JUMPDEST DUP4 ADD DUP3 PUSH2 0x11BF JUMP JUMPDEST POP POP JUMPDEST POP POP POP JUMP JUMPDEST PUSH1 0x0 DUP3 DUP3 SHR SWAP1 POP SWAP3 SWAP2 POP POP JUMP JUMPDEST PUSH1 0x0 PUSH2 0x1246 PUSH1 0x0 NOT DUP5 PUSH1 0x8 MUL PUSH2 0x1228 JUMP JUMPDEST NOT DUP1 DUP4 AND SWAP2 POP POP SWAP3 SWAP2 POP POP JUMP JUMPDEST PUSH1 0x0 PUSH2 0x125F DUP4 DUP4 PUSH2 0x1235 JUMP JUMPDEST SWAP2 POP DUP3 PUSH1 0x2 MUL DUP3 OR SWAP1 POP SWAP3 SWAP2 POP POP JUMP JUMPDEST PUSH2 0x1279 DUP4 DUP4 PUSH2 0x1089 JUMP JUMPDEST PUSH8 0xFFFFFFFFFFFFFFFF DUP2 GT ISZERO PUSH2 0x1292 JUMPI PUSH2 0x1291 PUSH2 0x1094 JUMP JUMPDEST JUMPDEST PUSH2 0x129C DUP3 SLOAD PUSH2 0xEAF JUMP JUMPDEST PUSH2 0x12A7 DUP3 DUP3 DUP6 PUSH2 0x11E2 JUMP JUMPDEST PUSH1 0x0 PUSH1 0x1F DUP4 GT PUSH1 0x1 DUP2 EQ PUSH2 0x12D6 JUMPI PUSH1 0x0 DUP5 ISZERO PUSH2 0x12C4 JUMPI DUP3 DUP8 ADD CALLDATALOAD SWAP1 POP JUMPDEST PUSH2 0x12CE DUP6 DUP3 PUSH2 0x1253 JUMP JUMPDEST DUP7 SSTORE POP PUSH2 0x1336 JUMP JUMPDEST PUSH1 0x1F NOT DUP5 AND PUSH2 0x12E4 DUP7 PUSH2 0x10C3 JUMP JUMPDEST PUSH1 0x0 JUMPDEST DUP3 DUP2 LT ISZERO PUSH2 0x130C JUMPI DUP5 DUP10 ADD CALLDATALOAD DUP3 SSTORE PUSH1 0x1 DUP3 ADD SWAP2 POP PUSH1 0x20 DUP6 ADD SWAP5 POP PUSH1 0x20 DUP2 ADD SWAP1 POP PUSH2 0x12E7 JUMP JUMPDEST DUP7 DUP4 LT ISZERO PUSH2 0x1329 JUMPI DUP5 DUP10 ADD CALLDATALOAD PUSH2 0x1325 PUSH1 0x1F DUP10 AND DUP3 PUSH2 0x1235 JUMP JUMPDEST DUP4 SSTORE POP JUMPDEST PUSH1 0x1 PUSH1 0x2 DUP9 MUL ADD DUP9 SSTORE POP POP POP JUMPDEST POP POP POP POP POP POP POP JUMP JUMPDEST PUSH1 0x0 PUSH2 0x134A DUP3 PUSH2 0xB1E JUMP JUMPDEST SWAP2 POP PUSH2 0x1355 DUP4 PUSH2 0xB1E JUMP JUMPDEST SWAP3 POP DUP3 DUP3 SUB SWAP1 POP DUP2 DUP2 GT ISZERO PUSH2 0x136D JUMPI PUSH2 0x136C PUSH2 0xF4C JUMP JUMPDEST JUMPDEST SWAP3 SWAP2 POP POP JUMP JUMPDEST PUSH1 0x0 DUP2 SWAP1 POP SWAP3 SWAP2 POP POP JUMP JUMPDEST PUSH1 0x0 DUP2 SLOAD PUSH2 0x138B DUP2 PUSH2 0xEAF JUMP JUMPDEST PUSH2 0x1395 DUP2 DUP7 PUSH2 0x1373 JUMP JUMPDEST SWAP5 POP PUSH1 0x1 DUP3 AND PUSH1 0x0 DUP2 EQ PUSH2 0x13B0 JUMPI PUSH1 0x1 DUP2 EQ PUSH2 0x13C5 JUMPI PUSH2 0x13F8 JUMP JUMPDEST PUSH1 0xFF NOT DUP4 AND DUP7 MSTORE DUP2 ISZERO ISZERO DUP3 MUL DUP7 ADD SWAP4 POP PUSH2 0x13F8 JUMP JUMPDEST PUSH2 0x13CE DUP6 PUSH2 0x10C3 JUMP JUMPDEST PUSH1 0x0 JUMPDEST DUP4 DUP2 LT ISZERO PUSH2 0x13F0 JUMPI DUP2 SLOAD DUP2 DUP10 ADD MSTORE PUSH1 0x1 DUP3 ADD SWAP2 POP PUSH1 0x20 DUP2 ADD SWAP1 POP PUSH2 0x13D1 JUMP JUMPDEST DUP4 DUP9 ADD SWAP6 POP POP POP JUMPDEST POP POP POP SWAP3 SWAP2 POP POP JUMP JUMPDEST PUSH1 0x0 PUSH2 0x140D DUP3 DUP5 PUSH2 0x137E JUMP JUMPDEST SWAP2 POP DUP2 SWAP1 POP SWAP3 SWAP2 POP POP JUMP JUMPDEST PUSH1 0x0 PUSH1 0x40 DUP3 ADD SWAP1 POP PUSH2 0x142D PUSH1 0x0 DUP4 ADD DUP6 PUSH2 0xC52 JUMP JUMPDEST PUSH2 0x143A PUSH1 0x20 DUP4 ADD DUP5 PUSH2 0xC43 JUMP JUMPDEST SWAP4 SWAP3 POP POP POP JUMP JUMPDEST PUSH32 0x4E6F2066756E647320746F207769746864726177000000000000000000000000 PUSH1 0x0 DUP3 ADD MSTORE POP JUMP JUMPDEST PUSH1 0x0 PUSH2 0x1477 PUSH1 0x14 DUP4 PUSH2 0xB8C JUMP JUMPDEST SWAP2 POP PUSH2 0x1482 DUP3 PUSH2 0x1441 JUMP JUMPDEST PUSH1 0x20 DUP3 ADD SWAP1 POP SWAP2 SWAP1 POP JUMP JUMPDEST PUSH1 0x0 PUSH1 0x20 DUP3 ADD SWAP1 POP DUP2 DUP2 SUB PUSH1 0x0 DUP4 ADD MSTORE PUSH2 0x14A6 DUP2 PUSH2 0x146A JUMP JUMPDEST SWAP1 POP SWAP2 SWAP1 POP JUMP JUMPDEST PUSH1 0x0 DUP2 SWAP1 POP SWAP3 SWAP2 POP POP JUMP JUMPDEST POP JUMP JUMPDEST PUSH1 0x0 PUSH2 0x14C8 PUSH1 0x0 DUP4 PUSH2 0x14AD JUMP JUMPDEST SWAP2 POP PUSH2 0x14D3 DUP3 PUSH2 0x14B8 JUMP JUMPDEST PUSH1 0x0 DUP3 ADD SWAP1 POP SWAP2 SWAP1 POP JUMP JUMPDEST PUSH1 0x0 PUSH2 0x14E9 DUP3 PUSH2 0x14BB JUMP JUMPDEST SWAP2 POP DUP2 SWAP1 POP SWAP2 SWAP1 POP JUMP JUMPDEST PUSH32 0x4661696C656420746F2077697468647261772065746865722100000000000000 PUSH1 0x0 DUP3 ADD MSTORE POP JUMP JUMPDEST PUSH1 0x0 PUSH2 0x1529 PUSH1 0x19 DUP4 PUSH2 0xB8C JUMP JUMPDEST SWAP2 POP PUSH2 0x1534 DUP3 PUSH2 0x14F3 JUMP JUMPDEST PUSH1 0x20 DUP3 ADD SWAP1 POP SWAP2 SWAP1 POP JUMP JUMPDEST PUSH1 0x0 PUSH1 0x20 DUP3 ADD SWAP1 POP DUP2 DUP2 SUB PUSH1 0x0 DUP4 ADD MSTORE PUSH2 0x1558 DUP2 PUSH2 0x151C JUMP JUMPDEST SWAP1 POP SWAP2 SWAP1 POP JUMP JUMPDEST PUSH32 0x546869732063616D706169676E2069732079657420746F20656E642100000000 PUSH1 0x0 DUP3 ADD MSTORE POP JUMP JUMPDEST PUSH1 0x0 PUSH2 0x1595 PUSH1 0x1C DUP4 PUSH2 0xB8C JUMP JUMPDEST SWAP2 POP PUSH2 0x15A0 DUP3 PUSH2 0x155F JUMP JUMPDEST PUSH1 0x20 DUP3 ADD SWAP1 POP SWAP2 SWAP1 POP JUMP JUMPDEST PUSH1 0x0 PUSH1 0x20 DUP3 ADD SWAP1 POP DUP2 DUP2 SUB PUSH1 0x0 DUP4 ADD MSTORE PUSH2 0x15C4 DUP2 PUSH2 0x1588 JUMP JUMPDEST SWAP1 POP SWAP2 SWAP1 POP JUMP JUMPDEST PUSH32 0x4661696C656420746F2073656E6420657468657220746F2062656E6566616374 PUSH1 0x0 DUP3 ADD MSTORE PUSH32 0x6F72210000000000000000000000000000000000000000000000000000000000 PUSH1 0x20 DUP3 ADD MSTORE POP JUMP JUMPDEST PUSH1 0x0 PUSH2 0x1627 PUSH1 0x23 DUP4 PUSH2 0xB8C JUMP JUMPDEST SWAP2 POP PUSH2 0x1632 DUP3 PUSH2 0x15CB JUMP JUMPDEST PUSH1 0x40 DUP3 ADD SWAP1 POP SWAP2 SWAP1 POP JUMP JUMPDEST PUSH1 0x0 PUSH1 0x20 DUP3 ADD SWAP1 POP DUP2 DUP2 SUB PUSH1 0x0 DUP4 ADD MSTORE PUSH2 0x1656 DUP2 PUSH2 0x161A JUMP JUMPDEST SWAP1 POP SWAP2 SWAP1 POP JUMP INVALID LOG2 PUSH5 0x6970667358 0x22 SLT KECCAK256 0xC3 NUMBER SWAP1 0x2E 0xD2 PUSH31 0x868F3FE04CCF39FEC813FEB3AF9A9BECEE7433D10867CE2707D564736F6C63 NUMBER STOP ADDMOD XOR STOP CALLER "
        },
        "methodIdentifiers": {
          "campaigns(uint256)": "141961bc",
          "checkCampaigns()": "5111dd0a",
          "createCampaign(string,string,address,uint256,uint256)": "9304d124",
          "donateToCampaign(uint256)": "42a4fda8",
          "numOfCampaigns()": "3a69e1fc",
          "owner()": "8da5cb5b",
          "renounceOwnership()": "715018a6",
          "transferOwnership(address)": "f2fde38b",
          "withdrawRefunds()": "95afc05c"
        }
      }
    }
  }
}